:100000000C942A000C9447000C9447000C94470071
:100010000C9447000C9447000C9447000C94F41285
:100020000C9447000C9447000C9447000C94470034
:100030000C9447000C9447000C9447000C94470024
:100040000C9447000C9447000C9447000C94470014
:100050000C94470011241FBECFE5D8E0DEBFCDBF12
:1000600011E0A0E6B0E0EEE3F5E602C005900D92E7
:10007000A839B107D9F718E0A8E9B1E001C01D928D
:10008000A432B107E1F70E94A20D0C949D320C94AA
:100090000000EF92FF920F931F937B018C0120E0F1
:1000A00030E040E05FE40E94CB0288238CF0C8017E
:1000B000B70120E030E040E05FE40E94C1010E940F
:1000C000FB029B01AC01205030404040504806C02C
:1000D000C801B7010E94FB029B01AC01B901CA0132
:1000E0001F910F91FF90EF900895A0E0B0E0EBE733
:1000F000F0E00C945632DC012B01FA019C91923015
:1001000008F439C1EB018881823008F433C194309E
:1001100069F4843009F02FC111969C91119789815F
:10012000981709F428C1A0E9B0E025C1843009F48A
:1001300021C18230A9F4923009F01DC19A01AD01AC
:1001400088E0EA010990AE01E90109929E0181501F
:10015000C1F7E201898111969C918923818308C1AD
:10016000923009F407C112962D903C901397EB0141
:100170008A819B811496AD90BD90CD90DC901797AD
:10018000EC80FD800E811F819101281B390BB90184
:1001900037FF04C066277727621B730B6032710537
:1001A0000CF061C0121613066CF537014801062EDB
:1001B00004C096948794779467940A94D2F721E0C8
:1001C00030E040E050E004C0220F331F441F551FB1
:1001D0006A95D2F721503040404050402E213F21B7
:1001E00040235123211531054105510521F021E01E
:1001F00030E040E050E079018A01E628F72808293C
:1002000019293CC0232BD1F1260E371E350146019A
:10021000062E04C096948794779467940A94D2F734
:1002200021E030E040E050E004C0220F331F441FC3
:10023000551F6A95D2F721503040404050402A2146
:100240003B214C215D21211531054105510521F04E
:1002500021E030E040E050E059016A01A628B728CB
:10026000C828D9280BC0821593052CF01C01AA249C
:10027000BB24650103C0EE24FF24870111969C91E5
:10028000D20111968C91981709F445C0992339F041
:10029000A80197012A193B094C095D0906C0A6016E
:1002A00095012E193F09400B510B57FD08C01182D3
:1002B0003382228224833583468357831DC081E0A5
:1002C00081833382228288279927DC01821B930B4A
:1002D000A40BB50B84839583A683B7830DC0220F2F
:1002E000331F441F551F24833583468357838281E0
:1002F000938101979383828324813581468157813D
:10030000DA01C9010197A109B1098F5F9F4FAF4F72
:10031000BF4328F30BC0918333822282EA0CFB1C7B
:100320000C1D1D1DE482F5820683178383E0808304
:10033000248135814681578157FF1AC0C901AA27F8
:1003400097FDA095BA2F81709070A070B0705695EF
:10035000479537952795822B932BA42BB52B848318
:100360009583A683B7838281938101969383828349
:10037000DF0101C0D201CD01CDB7DEB7E2E10C94BF
:100380007232A0E2B0E0E7ECF1E00C9462326983F3
:100390007A838B839C832D833E834F835887E9E048
:1003A000EE2EF12CEC0EFD1ECE010196B7010E943F
:1003B000EC048E010F5E1F4FCE010596B8010E941E
:1003C000EC048A8991E089278A8BC701B801AE01C4
:1003D000475E5F4F0E9475000E941704A096E6E0FA
:1003E0000C947E32A0E2B0E0E8EFF1E00C946232CF
:1003F00069837A838B839C832D833E834F835887C5
:10040000F9E0EF2EF12CEC0EFD1ECE010196B701A6
:100410000E94EC048E010F5E1F4FCE010596B801BD
:100420000E94EC04C701B801AE01475E5F4F0E9415
:1004300075000E941704A096E6E00C947E32A8E1B5
:10044000B0E0E5E2F2E00C945E3269837A838B835C
:100450009C832D833E834F835887B9E0EB2EF12C8C
:10046000EC0EFD1ECE010196B7010E94EC048E0138
:100470000F5E1F4FCE010596B8010E94EC0429853E
:10048000223008F47EC03989323010F4B8017CC0C3
:100490008A859A8989278A87243011F0223031F49D
:1004A000231709F06EC060E970E06EC0343039F493
:1004B0001D861E861F86188A1C861B8604C0323045
:1004C00021F484E08987B7015FC02B853C858B8947
:1004D0009C89281B390B3C872B87ED84FE840F8574
:1004E0001889AD88BE88CF88D88CEA14FB040C0527
:1004F0001D0540F4EE0CFF1C001F111F2150304061
:100500003C872B8720E030E040E050E080E090E046
:10051000A0E0B0E460E070E0EA14FB040C051D0507
:1005200040F0282B392B4A2B5B2BEA18FB080C09CF
:100530001D09B695A79597958795EE0CFF1C001F92
:10054000111F6F5F7F4F6F31710531F7DA01C901FC
:100550008F779070A070B07080349105A105B105BF
:1005600061F427FD0AC0E114F1040105110529F029
:10057000205C3F4F4F4F5F4F20782D873E874F873E
:10058000588BBE01675F7F4FCB010E9417046896AE
:10059000EAE00C947A32A8E1B0E0E1EDF2E00C94EC
:1005A000623269837A838B839C832D833E834F835E
:1005B000588789E0E82EF12CEC0EFD1ECE01019645
:1005C000B7010E94EC048E010F5E1F4FCE0105960D
:1005D000B8010E94EC048985823040F0898982301C
:1005E00028F0C701B8010E94640501C08FEF68962A
:1005F000E6E00C947E32ACE0B0E0E1E0F3E00C9495
:10060000663269837A838B839C83CE010196BE0117
:100610006B5F7F4F0E94EC048D81823061F18230EC
:1006200050F1843021F48E81882351F12EC02F8126
:10063000388537FD20C06E812F3131051CF06623CF
:10064000F9F023C08EE190E0821B930B29853A8557
:100650004B855C8504C056954795379527958A95B7
:10066000D2F76623B1F050954095309521953F4FD4
:100670004F4F5F4F0EC020E030E040E050E009C037
:100680002FEF3FEF4FEF5FE704C020E030E040E0A6
:1006900050E8B901CA012C96E2E00C948232A8E03D
:1006A000B0E0E5E5F3E00C945E327B018C0161156E
:1006B00071058105910519F482E0898360C083E0AA
:1006C00089838EE1C82ED12CDC82CB82ED82FE8222
:1006D0000F831887C801B7010E94C803FC01319736
:1006E000F7FF3BC0222733272E1B3F0B5701680122
:1006F000022E04C0D694C794B794A7940A94D2F754
:1007000040E050E060E070E081E090E0A0E0B0E028
:1007100004C0880F991FAA1FBB1F2A95D2F7019703
:10072000A109B1098E219F21A023B1230097A10522
:10073000B10521F041E050E060E070E04A295B291A
:100740006C297D294D835E836F8378878EE190E0ED
:100750008E1B9F0B9C838B8312C0309781F00E2ED3
:1007600004C0EE0CFF1C001F111F0A94D2F7ED828B
:10077000FE820F831887CE1ADF0ADC82CB821A82B0
:10078000CE0101960E9417042896EAE00C947A3272
:10079000EF92FF920F931F937B018C0180E0E8168C
:1007A00080E0F80681E0080780E0180788F48FEF02
:1007B000E816F1040105110531F028F088E090E019
:1007C000A0E0B0E017C080E090E0A0E0B0E012C090
:1007D00080E0E81680E0F80680E0080781E018076E
:1007E00028F088E190E0A0E0B0E004C080E190E073
:1007F000A0E0B0E020E230E040E050E0281B390B00
:100800004A0B5B0B04C016950795F794E7948A95FD
:10081000D2F7F701E856FF4F8081281B31094109C3
:100820005109C9011F910F91FF90EF900895DF9238
:10083000EF92FF920F931F93FC01E480F5800681F5
:100840001781D1808081823048F480E090E0A0E17F
:10085000B0E0E82AF92A0A2B1B2BA5C0843009F442
:100860009FC0823021F4EE24FF24870105C0E114EB
:10087000F1040105110519F4E0E0F0E096C0628191
:1008800073819FEF623879070CF05BC022E83FEF7D
:10089000261B370B2A3131052CF020E030E040E0F8
:1008A00050E02AC0B801A701022E04C076956795D2
:1008B000579547950A94D2F781E090E0A0E0B0E028
:1008C00004C0880F991FAA1FBB1F2A95D2F7019752
:1008D000A109B1098E219F21A023B1230097A10571
:1008E000B10521F081E090E0A0E0B0E09A01AB0119
:1008F000282B392B4A2B5B2BDA01C9018F7790709B
:10090000A070B07080349105A105B10539F427FFBE
:1009100009C0205C3F4F4F4F5F4F04C0215C3F4FE9
:100920004F4F5F4FE0E0F0E02030A0E03A07A0E05A
:100930004A07A0E45A0710F0E1E0F0E079018A01EB
:1009400027C06038710564F5FB01E158FF4FD801FD
:10095000C7018F779070A070B07080349105A105A9
:10096000B10539F4E7FE0DC080E490E0A0E0B0E00E
:1009700004C08FE390E0A0E0B0E0E80EF91E0A1F8B
:100980001B1F17FF05C016950795F794E79431963E
:1009900087E016950795F794E7948A95D1F705C0F7
:1009A000EE24FF248701EFEFF0E06E2F67956627B6
:1009B0006795902F9F77D794DD24D7948E2F8695B7
:1009C000492F462B582F5D29B701CA011F910F915E
:1009D000FF90EF90DF900895FC01DB014081518191
:1009E0002281622F6F7770E0221F2227221F9381BE
:1009F000892F880F822B282F30E0991F9927991F64
:100A000011969C93119721153105A9F541155105B2
:100A10006105710511F482E037C082E89FEF1396FB
:100A20009C938E9312979A01AB0167E0220F331FBC
:100A3000441F551F6A95D1F783E08C930DC0220F98
:100A4000331F441F551F12968D919C911397019748
:100A500013969C938E931297203080E0380780E0A5
:100A6000480780E4580758F314962D933D934D930F
:100A70005C93179708952F3F310579F4411551057F
:100A80006105710519F484E08C93089564FF03C037
:100A900081E08C9312C01C9210C02F5730401396E7
:100AA0003C932E93129783E08C9387E0440F551F5D
:100AB000661F771F8A95D1F7706414964D935D93E6
:100AC0006D937C93179708951F93DC01FB019C9114
:100AD000923008F447C08081823008F443C09430DB
:100AE00051F411961C91843099F58181682F70E042
:100AF000611B71093FC0843021F0923031F48230A3
:100B0000B9F18181882389F12DC011961C9111972B
:100B10008230F1F081811817D9F412962D913C9111
:100B20001397828193818217930794F028173907CE
:100B3000BCF014968D919D910D90BC91A02D2481B7
:100B4000358146815781281739074A075B0718F412
:100B5000112341F00AC082179307A407B50740F498
:100B6000112319F061E070E005C06FEF7FEF02C064
:100B700060E070E0CB011F910895DF93CF9300D028
:100B8000CDB7DEB78BE090E00E9402099A8389839B
:100B900089819A81009749F0E981FA811182108256
:100BA00089819A8102960E947E0989819A810F909B
:100BB0000F90CF91DF910895DF93CF93CDB7DEB73C
:100BC00060970FB6F894DEBF0FBECDBF9A878987B6
:100BD0007C876B875E874D87388B2F8789859A85C1
:100BE0009C838B8319820E942527EB81FC81808165
:100BF000918198878F8389859A852B853C85B9015A
:100C00000E94B3072F8138858B859C85282B392B33
:100C10008D859E85282339238D859E852817390744
:100C2000C9F42F8138858B859C85822B932B9E83DD
:100C30008D83EB81FC81208131818D859E8580951E
:100C4000909582239323EB81FC8191838083188A82
:100C50001F861EC08F859889009791F08B819C819B
:100C6000BC016E5F7F4F8D859E859C0135604F85F1
:100C70005889CB01B9010E9495291E821D8208C0A6
:100C8000EB81FC81808191819E838D8381E08983CA
:100C90000E9431278A838F859889009709F43AC08A
:100CA0008A81882311F40E94E2110E94AD2D9E8357
:100CB0008D838D819E8180709270009731F50FB683
:100CC000F8940F92EB81FC81808191819E838D83CA
:100CD0002D813E818D859E85282339238D859E8596
:100CE0002817390771F4EB81FC81208131818D85D2
:100CF0009E858095909582239323EB81FC8191833F
:100D000080830F900FBE81E089838D819E819070DA
:100D10009E838D838D819E8160960FB6F894DEBF91
:100D20000FBECDBFCF91DF9108950F931F93DF9337
:100D3000CF93CDB7DEB763970FB6F894DEBF0FBE83
:100D4000CDBF9D878C877F876E87488B298B1B8BB8
:100D50000A8B8C859D859B878A871F821E821B82BA
:100D60000E942527EA85FB85808191819A8389836A
:100D700089819A812E853F85B90149890E94D008D1
:100D80008D838D818823C1F089819A819987888795
:100D90001B8A1A8A88898823E9F1EA85FB852081E4
:100DA00031818E859F858095909582239323EA8556
:100DB000FB85918380832EC08A899B89009739F4B3
:100DC00089819A819987888781E08B8323C088896C
:100DD000882329F08E819F8191609F838E838989EA
:100DE000882329F08E819F8194609F838E838A85DA
:100DF0009B85BC016E5F7F4F2E853F858E819F81D5
:100E0000282B392B4A895B89CB01B9010E9495298E
:100E1000198618860E9431278C838A899B890097BE
:100E200009F43CC08C81882311F40E94E2110E94D5
:100E3000AD2D9987888788859985807092700097F5
:100E400041F50FB6F8940F92EA85FB858081918178
:100E500099878887888599852E853F85B901498935
:100E60000E94D008882389F08889882371F0EA8558
:100E7000FB85208131818E859F8580959095822389
:100E80009323EA85FB859183808381E08B830F9098
:100E90000FBE888599859070998788878885998500
:100EA00063960FB6F894DEBF0FBECDBFCF91DF9132
:100EB0001F910F910895DF93CF93CDB7DEB7289799
:100EC0000FB6F894DEBF0FBECDBF9E838D837887AB
:100ED0006F838D819E819C838B830FB6F8940F92D4
:100EE000EB81FC81808191819A838983EB81FC81F4
:100EF000208131818F8198858095909582239323DD
:100F0000EB81FC81918380830F900FBE89819A8150
:100F100028960FB6F894DEBF0FBECDBFCF91DF91FC
:100F20000895DF93CF93CDB7DEB727970FB6F89428
:100F3000DEBF0FBECDBF9F838E838E819F819C833A
:100F40008B831D82EB81FC81808191819A838983CF
:100F500089819A8127960FB6F894DEBF0FBECDBF68
:100F6000CF91DF910895DF93CF93CDB7DEB765972B
:100F70000FB6F894DEBF0FBECDBF9B8B8A8B7D8BE7
:100F80006C8B198618868A899B899B838A83198230
:100F90008A819B8102969B878A878A859B85039697
:100FA0009D878C870E942527EA85FB858581968110
:100FB000998B888BEA81FB81208131818C899D8985
:100FC000822B932BEA81FB819183808359C0E8892E
:100FD000F989828193819F878E87E889F989808149
:100FE00091819F838E8319828E819F8180709D83E2
:100FF0008C838E819F8190709F838E838C819D8155
:1010000080709470009769F4EA81FB8120813181BE
:101010008E819F8182239323009791F081E08983C1
:101020000FC0EA81FB81208131818E819F8128233D
:1010300039238E819F812817390711F481E0898334
:1010400089818823C9F08C819D818070917000977F
:1010500041F0888599852E813F81822B932B99873A
:101060008887EA81FB81808191819C013260888937
:101070009989B9010E94302A8E859F85998B888B2A
:10108000288939898C859D852817390709F09FCFD4
:10109000EA81FB81208131818885998580959095B1
:1010A00082239323EA81FB81918380830E943127ED
:1010B000EA81FB818081918165960FB6F894DEBF4D
:1010C0000FBECDBFCF91DF910895DF93CF9300D0B6
:1010D00000D000D0CDB7DEB79E838D838D819E81F9
:1010E0009C838B838B819C8102969A8389830E9447
:1010F000252708C0E981FA818581968160E072E048
:101100000E94302AE981FA818081882399F78B81B6
:101110009C810E9458090E94312726960FB6F894A8
:10112000DEBF0FBECDBFCF91DF910895DF93CF9388
:1011300000D000D000D0CDB7DEB79A8389834B832F
:101140005C836D837E8389819A812B813C81B90187
:101150000E94B30726960FB6F894DEBF0FBECDBF30
:10116000CF91DF910895DF93CF9300D000D000D0CE
:10117000CDB7DEB79A8389834B835C836D837E838F
:1011800089819A812B813C81B9010E945B07269657
:101190000FB6F894DEBF0FBECDBFCF91DF9108959B
:1011A000DF93CF9300D000D000D0CDB7DEB79B83C4
:1011B0008A837D836C834E8319828E81882359F4C0
:1011C0008A819B812C813D8182239323009781F02A
:1011D00081E089830DC02A813B818C819D812823F8
:1011E00039238C819D812817390711F481E0898387
:1011F000898126960FB6F894DEBF0FBECDBFCF9182
:10120000DF910895DF93CF9300D000D0CDB7DEB744
:101210009C838B831A8219820E94252780919A01D0
:1012200090919B01009731F48DE991E090939B019F
:1012300080939A0180919801909199012B813C8132
:10124000820F931F25E08B3D920738F5209198017E
:10125000309199018B819C81280F391F80919801D1
:101260009091990182179307C0F420919A013091CF
:101270009B018091980190919901820F931F9A830D
:10128000898320919801309199018B819C81820FF3
:10129000931F90939901809398010E94312789812F
:1012A0009A810F900F900F900F90CF91DF9108953A
:1012B000DF93CF9300D0CDB7DEB79A8389830F90A9
:1012C0000F90CF91DF910895DF93CF93CDB7DEB725
:1012D0001092990110929801CF91DF910895DF93B8
:1012E000CF93CDB7DEB720919801309199018BED66
:1012F00095E0821B930BCF91DF910895DF93CF93FD
:1013000000D0CDB7DEB79A83898389819A8103960D
:10131000E981FA8192838183E981FA818FEF9FEFDE
:101320009483838389819A810396E981FA819683E4
:10133000858389819A810396E981FA8190878783E1
:10134000E981FA8110820F900F90CF91DF9108957B
:10135000DF93CF9300D0CDB7DEB79A838983E9813D
:10136000FA81118610860F900F90CF91DF9108952A
:10137000DF93CF9300D000D000D0CDB7DEB79C83F1
:101380008B837E836D83EB81FC81818192819A8343
:101390008983ED81FE8189819A8193838283E981AA
:1013A000FA8184819581ED81FE8195838483E98131
:1013B000FA810480F581E02D8D819E819383828363
:1013C000E981FA818D819E8195838483ED81FE81FF
:1013D0008B819C8191878087EB81FC8180818F5FED
:1013E000EB81FC81808326960FB6F894DEBF0FBE9A
:1013F000CDBFCF91DF910895DF93CF93CDB7DEB707
:1014000028970FB6F894DEBF0FBECDBF9E838D83A5
:1014100078876F83EF81F885808191819A838983B2
:1014200089819A812FEF8F3F920739F4ED81FE81F8
:10143000878190859C838B8318C08D819E810396C4
:101440009C838B8306C0EB81FC81828193819C838A
:101450008B83EB81FC810280F381E02D208131813F
:1014600089819A818217930770F7EB81FC818281D1
:101470009381EF81F88593838283EF81F8850280E1
:10148000F381E02D8F81988595838483EF81F885A2
:101490008B819C8195838483EB81FC818F819885EE
:1014A00093838283EF81F8858D819E8191878087E8
:1014B000ED81FE8180818F5FED81FE8180832896A2
:1014C0000FB6F894DEBF0FBECDBFCF91DF91089568
:1014D000DF93CF9300D000D0CDB7DEB79C838B8352
:1014E000EB81FC81808591859A838983EB81FC81E6
:1014F000A281B381EB81FC818481958115969C93B7
:101500008E931497EB81FC81A481B581EB81FC81E2
:101510008281938113969C938E931297E981FA812D
:10152000218132818B819C812817390741F4EB811D
:10153000FC8184819581E981FA8192838183EB81A9
:10154000FC8111861086E981FA8180818150E981D0
:10155000FA818083E981FA8180810F900F900F904A
:101560000F90CF91DF910895DF93CF93CDB7DEB782
:1015700028970FB6F894DEBF0FBECDBF98878F8334
:101580000E94C4279E838D830E94490E9C838B8377
:1015900020917A0730917B078B819C81821793077A
:1015A00009F462C08B819C8190937B0780937A07BA
:1015B00080917A0790917B07009709F455C080913C
:1015C0007C0790917D07019690937D0780937C071F
:1015D00080917C0790917D0724E030E0B9010E9462
:1015E0002F3290937D0780937C07809178079091AC
:1015F00079076FEF70E00E945B079A8389830E94EE
:1016000015100E94DD0F0E94F90F80917C079091C8
:101610007D078130910549F4809178079091790791
:1016200060E270E00E94B3071FC080917C07909138
:101630007D078230910549F4809178079091790770
:1016400060E470E00E94B3070FC080917C07909126
:101650007D078330910541F4809178079091790757
:1016600060E870E00E94B307CE01059664E670E082
:101670000E94E62489CFDF93CF93CDB7DEB72897BA
:101680000FB6F894DEBF0FBECDBF98878F830E9440
:10169000C4279E838D830E942E0E9C838B83209172
:1016A0007E0730917F078B819C818217930709F415
:1016B00062C08B819C8190937F0780937E0780918D
:1016C0007E0790917F07009709F455C080918007AD
:1016D0009091810701969093810780938007809174
:1016E00080079091810724E030E0B9010E942F32F9
:1016F0009093810780938007809178079091790774
:101700006FEF70E00E945B079A8389830E94520FFB
:101710000E941A0F0E94360F8091800790918107D6
:101720008130910549F4809178079091790762E0C2
:1017300070E00E94B3071FC08091800790918107DD
:101740008230910549F4809178079091790764E09F
:1017500070E00E94B3070FC08091800790918107CD
:101760008330910541F4809178079091790768E082
:1017700070E00E94B307CE01059664E670E00E9417
:10178000E62489CFDF93CF9300D000D0CDB7DEB76A
:101790009C838B830E94C4279A83898381E00E9463
:1017A0009E0E882F90E090932108809320088091CE
:1017B000200890912108853091053CF08091200807
:1017C000909121088932910534F081E60E949B0FA7
:1017D0000E94600F02C00E946E0F82E00E949E0E67
:1017E000882F90E09093230880932208809122080C
:1017F00090912308853091053CF0809122089091CA
:1018000023088932910534F081E60E949B0F0E94E3
:10181000600F02C00E946E0FCE01019664E670E078
:101820000E94E624BBCF0F931F93DF93CF9300D08A
:1018300000D0CDB7DEB79C838B83809178079091E1
:10184000790762E270E041E020E00FEF1FEF0E94B5
:1018500095069A83898389819A8182709070009716
:1018600079F1809120089091210829E130E0A901C7
:10187000481B590BCA018230910514F18091200850
:101880009091210829E130E0A901481B590BCA01B8
:10189000853091051CF40E940C0F12C08091200825
:1018A0009091210829E130E0A901481B590BCA0198
:1018B0008A3091051CF40E94280F02C00E94440F38
:1018C00089819A8180729070009709F4B6CF8091D7
:1018D00022089091230829E130E0A901481B590B07
:1018E000CA01823091050CF4A8CF80912208909112
:1018F000230829E130E0A901481B590BCA018530B2
:1019000091051CF40E94CF0F98CF809122089091EE
:10191000230829E130E0A901481B590BCA018A308C
:1019200091051CF40E94EB0F88CF0E94071085CF11
:101930000F931F93DF93CF9300D000D0CDB7DEB7C6
:101940009C838B83809178079091790764E470E0A1
:1019500041E020E00FEF1FEF0E9495069A838983F4
:1019600089819A8184709070009779F18091200824
:10197000909121082EE130E0A901481B590BCA01C2
:101980008230910514F180912008909121082EE178
:1019900030E0A901481B590BCA01853091051CF4A0
:1019A0000E940C0F12C080912008909121082EE116
:1019B00030E0A901481B590BCA018A3091051CF47B
:1019C0000E94280F02C00E94440F89819A8180746E
:1019D0009070009709F4B6CF809122089091230867
:1019E0002EE130E0A901481B590BCA018230910554
:1019F0000CF4A8CF80912208909123082EE130E0CA
:101A0000A901481B590BCA01853091051CF40E949D
:101A1000CF0F98CF80912208909123082EE130E0DB
:101A2000A901481B590BCA018A3091051CF40E9478
:101A3000EB0F88CF0E94071085CF0F931F93DF9382
:101A4000CF9300D000D0CDB7DEB79C838B8380913D
:101A500078079091790768E870E041E020E00FEFA7
:101A60001FEF0E9495069A83898389819A818870E5
:101A70009070009779F1809120089091210823E2DD
:101A800030E0A901481B590BCA018230910514F1BD
:101A9000809120089091210823E230E0A901481BA1
:101AA000590BCA01853091051CF40E940C0F12C01D
:101AB000809120089091210823E230E0A901481B81
:101AC000590BCA018A3091051CF40E94280F02C0EC
:101AD0000E94440F89819A8180789070009709F460
:101AE000B6CF809122089091230823E230E0A9012B
:101AF000481B590BCA01823091050CF4A8CF809184
:101B000022089091230823E230E0A901481B590BD9
:101B1000CA01853091051CF40E94CF0F98CF8091A7
:101B200022089091230823E230E0A901481B590BB9
:101B3000CA018A3091051CF40E94EB0F88CF0E94E5
:101B4000071085CFEF92FF920F93DF93CF93CDB71E
:101B5000DEB70E941D0E81E00E942D1490931F0895
:101B600080931E080E94BD059093790780937807A3
:101B70008091780790917907009709F45DC0809172
:101B80001E0890911F08009709F456C084EB9AE054
:101B900020E630E0B90140E550E020E030E002E02E
:101BA000EE24FF240E94C12283E19CE029E630E07C
:101BB000B90140E550E020E030E002E0EE24FF24EF
:101BC0000E94C1228BE39BE023E730E0B90140E5AE
:101BD00050E020E030E002E0EE24FF240E94C12229
:101BE00088E99CE023E730E0B90140E550E020E0DF
:101BF00030E002E0EE24FF240E94C1228DE19DE04E
:101C000023E730E0B90140E550E020E030E002E0B9
:101C1000EE24FF240E94C12282EC9BE023E730E007
:101C2000B90140E550E020E030E003E0EE24FF247D
:101C30000E94C1220E94E726FFCFDF93CF93CDB74A
:101C4000DEB70E94640E0E94DB0E0E94F00E87E653
:101C500090E00E947C0FCF91DF910895DF93CF93A6
:101C600000D0CDB7DEB7E6E3F0E08081882F90E0CA
:101C7000887090701A821982009721F481E090E0B8
:101C80009A83898389819A810F900F90CF91DF91F8
:101C90000895DF93CF9300D0CDB7DEB7E6E3F0E051
:101CA0008081882F90E0807190701A82198200974D
:101CB00021F481E090E09A83898389819A810F9051
:101CC0000F90CF91DF910895DF93CF93CDB7DEB71B
:101CD000E7E2F0E080E48083E6E2F0E086E88083FB
:101CE000CF91DF910895DF93CF930F92CDB7DEB7F9
:101CF0008983898187708983A7E2B0E0E7E2F0E019
:101D00008081982F987F8981892B8C93A6E2B0E0FF
:101D1000E6E2F0E0808180648C93E6E2F0E080818E
:101D2000882F90E0807490700097B9F7E4E2F0E0BB
:101D3000808191810F90CF91DF910895DF93CF93B0
:101D400000D000D0CDB7DEB78C831B821A821982F7
:101D50008C810E94730E9A83898389819A81CC0138
:101D6000A0E0B0E02EEE32E040E050E0BC01CD015A
:101D70000E941032DC01CB01BC01CD010E944F0357
:101D8000DC01CB01BC01CD0120E030ED4FEB54E490
:101D90000E941F02DC01CB01BC01CD010E94490061
:101DA000DC01CB018B838B810F900F900F900F90F4
:101DB000CF91DF910895DF93CF93CDB7DEB7A7E33F
:101DC000B0E0E7E3F0E08081877E8C93A8E3B0E0A9
:101DD000E8E3F0E0808188618C93CF91DF910895F2
:101DE000DF93CF93CDB7DEB7A1E3B0E0E1E3F0E05E
:101DF0008081806F8C93A4E3B0E0E4E3F0E0808125
:101E000087608C93A5E3B0E0E5E3F0E08081887F14
:101E10008C93CF91DF910895DF93CF93CDB7DEB749
:101E2000A2E3B0E0E2E3F0E0808180688C93CF91A0
:101E3000DF910895DF93CF93CDB7DEB7A2E3B0E093
:101E4000E2E3F0E080818F778C93CF91DF9108956A
:101E5000DF93CF93CDB7DEB7A2E3B0E0E2E3F0E0EB
:101E6000808180648C93CF91DF910895DF93CF932D
:101E7000CDB7DEB7A2E3B0E0E2E3F0E080818F7B94
:101E80008C93CF91DF910895DF93CF93CDB7DEB7D9
:101E9000A2E3B0E0E2E3F0E0808180628C93CF9136
:101EA000DF910895DF93CF93CDB7DEB7A2E3B0E023
:101EB000E2E3F0E080818F7D8C93CF91DF910895F4
:101EC000DF93CF93CDB7DEB7A2E3B0E0E2E3F0E07B
:101ED000808180618C93CF91DF910895DF93CF93C0
:101EE000CDB7DEB7A2E3B0E0E2E3F0E080818F7E21
:101EF0008C93CF91DF910895DF93CF9300D0CDB72E
:101F0000DEB79A838983E0E4F0E089819A81892FA2
:101F100099278083E9E2F0E089818083EAE2F0E0BA
:101F200088E08083E0E4F0E086E880830F900F9003
:101F3000CF91DF910895DF93CF930F92CDB7DEB7A6
:101F40008983EBE2F0E08081882F90E080729070CE
:101F50000097B9F3ECE2F0E0898180830F90CF9194
:101F6000DF910895DF93CF9300D0CDB7DEB79A838A
:101F700089830BC0E981FA81208189819A81019648
:101F80009A838983822F0E949B0FE981FA81808145
:101F9000882381F70F900F90CF91DF910895DF9301
:101FA000CF93CDB7DEB7A5E3B0E0E5E3F0E0808105
:101FB00081608C93CF91DF910895DF93CF93CDB75C
:101FC000DEB7A5E3B0E0E5E3F0E080818E7F8C939F
:101FD000CF91DF910895DF93CF93CDB7DEB7A5E31F
:101FE000B0E0E5E3F0E0808182608C93CF91DF91F7
:101FF0000895DF93CF93CDB7DEB7A5E3B0E0E5E377
:10200000F0E080818D7F8C93CF91DF910895DF93F5
:10201000CF93CDB7DEB7A5E3B0E0E5E3F0E0808194
:1020200084608C93CF91DF910895DF93CF93CDB7E8
:10203000DEB7A5E3B0E0E5E3F0E080818B7F8C9331
:10204000CF91DF910895DF93CF93CDB7DEB7289777
:102050000FB6F894DEBF0FBECDBF9C838B837E830B
:102060006D8358874F83EB81FC8181E180838B8175
:102070009C8101979C838B83EB81FC8182E280832E
:102080008B819C8101979C838B83EB81FC8183E313
:1020900080838B819C8101979C838B838D819E8122
:1020A0009A8389838981EB81FC8180838B819C81E8
:1020B00001979C838B8389819A81892F99279A83A1
:1020C00089838981EB81FC8180838B819C8101974D
:1020D0009C838B83EB81FC8110828B819C81019797
:1020E0009C838B83EB81FC8180E880838B819C8146
:1020F00001979C838B83EB81FC8110828B819C8177
:1021000001979C838B83EB81FC8182E080838B81B0
:102110009C8101979C838B83EB81FC8183E080838E
:102120008B819C8101979C838B83EB81FC8184E074
:1021300080838B819C8101979C838B83EB81FC81C5
:1021400085E080838B819C8101979C838B83EB81CD
:10215000FC8186E080838B819C8101979C838B83AB
:10216000EB81FC8187E080838B819C8101979C833C
:102170008B83EB81FC8188E080838B819C8101973C
:102180009C838B83EB81FC8189E080838B819C81A4
:1021900001979C838B83EB81FC8180E180838B8121
:1021A0009C8101979C838B83EB81FC8181E18083FF
:1021B0008B819C8101979C838B83EB81FC8182E1E5
:1021C00080838B819C8101979C838B83EB81FC8135
:1021D00083E180838B819C8101979C838B83EB813E
:1021E000FC8184E180838B819C8101979C838B831C
:1021F000EB81FC8185E180838B819C8101979C83AD
:102200008B83EB81FC8186E180838B819C810197AC
:102210009C838B83EB81FC8187E180838B819C8114
:1022200001979C838B83EB81FC8188E180838B8188
:102230009C8101979C838B83EB81FC8189E1808366
:102240008B819C8101979C838B83EB81FC8180E255
:1022500080838B819C8101979C838B83EB81FC81A4
:1022600081E280838B819C8101979C838B83EB81AE
:10227000FC8182E280838B819C8101979C838B838C
:10228000EB81FC8183E280838B819C8101979C831D
:102290008B838F8198859A8389838981EB81FC81E7
:1022A00080838B819C8101979C838B8389819A8118
:1022B000892F99279A8389838981EB81FC81808387
:1022C0008B819C8101979C838B83EB81FC8186E2CF
:1022D00080838B819C8101979C838B83EB81FC8124
:1022E00087E280838B819C8101979C838B83EB8128
:1022F000FC8188E280838B819C8101979C838B8306
:10230000EB81FC8189E280838B819C8101979C8396
:102310008B83EB81FC8180E380838B819C8101979F
:102320009C838B83EB81FC8181E380838B819C8107
:1023300001979C838B838B819C8128960FB6F894A0
:10234000DEBF0FBECDBFCF91DF910895DF93CF9356
:10235000CDB7DEB70E949812A0918207B091830793
:10236000CD91CDBFDD91DEBFFF91EF91DF91CF9198
:10237000BF91AF919F918F917F916F915F914F919D
:102380003F912F911F910F91FF90EF90DF90CF9091
:10239000BF90AF909F908F907F906F905F904F9085
:1023A0003F902F901F900F900FBE0F90089581E0E7
:1023B000CF91DF910895DF93CF93CDB7DEB7CF9163
:1023C000DF9108950F920FB6F8940F921F92112487
:1023D0002F923F924F925F926F927F928F929F9235
:1023E000AF92BF92CF92DF92EF92FF920F931F9323
:1023F0002F933F934F935F936F937F938F939F930D
:10240000AF93BF93CF93DF93EF93FF93A091820796
:10241000B09183070DB60D920EB60D920E9406295B
:10242000A0918207B0918307CD91CDBFDD91DEBF32
:10243000FF91EF91DF91CF91BF91AF919F918F91DC
:102440007F916F915F914F913F912F911F910F91CC
:10245000FF90EF90DF90CF90BF90AF909F908F90C4
:102460007F906F905F904F903F902F901F900F90B4
:102470000FBE0F9008950F920FB6F8940F921F920F
:1024800011242F923F924F925F926F927F928F9280
:102490009F92AF92BF92CF92DF92EF92FF920F93F3
:1024A0001F932F933F934F935F936F937F938F93DC
:1024B0009F93AF93BF93CF93DF93EF93FF93A0913D
:1024C0008207B09183070DB60D920EB60D920E9451
:1024D0002128882311F00E940629A0918207B0913B
:1024E0008307CD91CDBFDD91DEBFFF91EF91DF91ED
:1024F000CF91BF91AF919F918F917F916F915F919C
:102500004F913F912F911F910F91FF90EF90DF908E
:10251000CF90BF90AF909F908F907F906F905F9083
:102520004F903F902F901F900F900FBE0F900895E7
:10253000DF93CF9300D000D000D0CDB7DEB780E8D6
:102540009EE3A0E0B0E08B839C83AD83BE838B8150
:102550009C81AD81BE81689415F8B695A795979535
:1025600087951694D1F78B839C83AD83BE838B8133
:102570009C81AD81BE810197A109B1098B839C83A8
:10258000AD83BE838B8189838B819C81AD81BE812C
:10259000892F9A2FAB2FBB278B839C83AD83BE8360
:1025A0008B818A83EBE4F0E08A818083EAE4F0E0C7
:1025B000898180838BE08983EEE4F0E089818083E8
:1025C000E9E5F0E080818983898180618983E9E59B
:1025D000F0E08981808326960FB6F894DEBF0FBEA7
:1025E000CDBFCF91DF9108950E943B121895DF93E4
:1025F000CF9300D000D00F92CDB7DEB79C838B83F2
:102600006D838B819C819A8389830FB6F8940F9296
:10261000E981FA8140815181E981FA81838D282FF6
:1026200030E0E981FA81848D882F90E0BC01269FFB
:10263000C001279F900D369F900D1124840F951F88
:10264000E981FA8195838483E981FA81128EE98197
:10265000FA8180819181E981FA8193838283E98182
:10266000FA8140815181E981FA81838D882F90E040
:102670009C0121503040E981FA81848D882F90E0BF
:10268000BC01269FC001279F900D369F900D1124FD
:10269000840F951FE981FA8197838683E981FA8106
:1026A0008FEF858FE981FA818FEF868F8D81882367
:1026B00079F4E981FA8180858823A1F089819A8162
:1026C00008960E94C529882369F00E94E2110AC079
:1026D00089819A8108960E947E0989819A81419612
:1026E0000E947E090F900FBE81E00F900F900F9017
:1026F0000F900F90CF91DF9108950F931F93DF9369
:10270000CF93CDB7DEB729970FB6F894DEBF0FBED3
:10271000CDBF8F83688749878885882319F41C82F9
:102720001B8210C08F81282F30E08885882F90E091
:10273000AC01249FC001259F900D349F900D112462
:102740009C838B838B819C814F960E9402099E8380
:102750008D838D819E810097A1F08D819E819A83CA
:10276000898389819A814F969A83898329813A81C5
:10277000ED81FE818F816885A90129858F010E94E5
:10278000CE138D819E8129960FB6F894DEBF0FBEC1
:10279000CDBFCF91DF911F910F9108950F931F939C
:1027A000DF93CF93CDB7DEB727970FB6F894DEBF90
:1027B0000FBECDBF89836A835C834B832D831F83C8
:1027C0000E838A81882339F48E819F81EE81FF8177
:1027D0009183808306C08B819C81EE81FF819183F0
:1027E0008083EE81FF818981838FEE81FF818A81E1
:1027F000848F8E819F8161E00E94F71227960FB629
:10280000F894DEBF0FBECDBFCF91DF911F910F9126
:102810000895DF93CF9300D0CDB7DEB79A83898335
:1028200089819A810097A1F0E981FA811582148249
:10283000E981FA8111821082E981FA811682898107
:102840009A8160E070E040E050E020E00E944D148A
:102850000F900F90CF91DF910895DF93CF9300D029
:1028600000D00F92CDB7DEB78D8381E08A831982C5
:102870008A8169814D810E947D139C838B838B812A
:102880009C810E9409148B819C810F900F900F9066
:102890000F900F90CF91DF910895DF93CF93CDB735
:1028A000DEB72F970FB6F894DEBF0FBECDBF998766
:1028B00088877B876A875D874C872E871C828885FF
:1028C00099859A8389830FB6F8940F92E981FA81EA
:1028D000928DE981FA81838D981718F08E85823068
:1028E00011F589819A812A853B85B9014E850E941F
:1028F000F3188B83E981FA818189882351F08981DA
:102900009A8141960E94C529882341F00E94E211D4
:1029100005C08B81882311F00E94E2110F900FBE39
:1029200081E08F875CC08C859D85009721F40F9096
:102930000FBE1F8654C08C81882331F4CE010596CA
:102940000E94AB2A81E08C830F900FBE0E94252746
:102950000FB6F8940F92E981FA81858D8F3F19F4B3
:10296000E981FA81158EE981FA81868D8F3F19F40C
:10297000E981FA81168E0F900FBECE0105969E0159
:10298000245F3F4FB9010E94C42A882309F5898139
:102990009A810E94811A8823A1F089819A810896E0
:1029A0002C853D85B9010E94732989819A810E94F5
:1029B000F2190E943127882309F085CF0E94E21185
:1029C00082CF89819A810E94F2190E9431277BCFA0
:1029D00089819A810E94F2190E9431271F868F8572
:1029E0002F960FB6F894DEBF0FBECDBFCF91DF910B
:1029F0000895DF93CF93CDB7DEB72C970FB6F89439
:102A0000DEBF0FBECDBF9F838E83798768875B87CC
:102A10004A872C878E819F819B838A831C82EA81CF
:102A2000FB81928DEA81FB81838D981718F08C854C
:102A3000823061F5EA81FB81868D89838A819B8161
:102A400028853985B9014C850E94F31889818F3F0B
:102A5000A9F4EA81FB8181898823A9F08A819B817D
:102A600041960E94C529882371F08A859B8500972D
:102A700051F0EA85FB8581E0808305C089818F5F05
:102A8000EA81FB81868F81E08D8301C01D828D816B
:102A90002C960FB6F894DEBF0FBECDBFCF91DF915D
:102AA0000895DF93CF93CDB7DEB72A970FB6F8948A
:102AB000DEBF0FBECDBF98878F837A8769878F81EE
:102AC00098859C838B831D82EB81FC81828D8A8318
:102AD000EB81FC81938D8A81891748F5EB81FC811C
:102AE000868D89838A818F5FEB81FC81828F8981CA
:102AF0008F3FA9F4EB81FC8181898823A9F08B8128
:102B00009C8141960E94C529882371F089859A8508
:102B1000009751F0E985FA8581E0808305C08981BD
:102B20008F5FEB81FC81868F81E08E8301C01E82E6
:102B30008E812A960FB6F894DEBF0FBECDBFCF911F
:102B4000DF910895DF93CF93CDB7DEB72E970FB601
:102B5000F894DEBF0FBECDBF998788877B876A87D1
:102B60005D874C871C82888599859B838A830FB6F5
:102B7000F8940F92EA81FB81828D89838981882371
:102B8000F9F08A819B812A853B85B9010E94AB19A6
:102B900089818150EA81FB81828FEA81FB81808576
:102BA000882349F08A819B8108960E94C529882341
:102BB00011F00E94E2110F900FBE81E08E8763C07A
:102BC0008C859D85009721F40F900FBE1E865BC0FB
:102BD0008C81882331F4CE0105960E94AB2A81E0D6
:102BE0008C830F900FBE0E9425270FB6F8940F928A
:102BF000EA81FB81858D8F3F19F4EA81FB81158E77
:102C0000EA81FB81868D8F3F19F4EA81FB81168E64
:102C10000F900FBECE0105969E01245F3F4FB90174
:102C20000E94C42A882309F58A819B810E94451A43
:102C30008823A1F08A819B8141962C853D85B9012D
:102C40000E9473298A819B810E94F2190E94312778
:102C5000882309F08CCF0E94E21189CF8A819B8161
:102C60000E94F2190E94312782CF8A819B810E94A3
:102C7000F2190E9431278A819B810E94451A88237C
:102C800009F475CF1E868E852E960FB6F894DEBF9A
:102C90000FBECDBFCF91DF910895DF93CF93CDB716
:102CA000DEB72E970FB6F894DEBF0FBECDBF9B8761
:102CB0008A877D876C871E828A859B859D838C830E
:102CC0001B820FB6F8940F92EC81FD81828D8A836E
:102CD0008A81882321F18A818150EC81FD81828F54
:102CE000EC81FD8180819181009731F40E94D42D87
:102CF000EC81FD8195838483EC81FD81808588232F
:102D000049F08C819D8108960E94C529882311F085
:102D10000E94E2110F900FBE81E08E8789C08C85E2
:102D20009D85009721F40F900FBE1E8681C08E8175
:102D3000882331F4CE0107960E94AB2A81E08E836E
:102D40000F900FBE0E9425270FB6F8940F92EC81CA
:102D5000FD81858D8F3F19F4EC81FD81158EEC810D
:102D6000FD81868D8F3F19F4EC81FD81168E0F90C9
:102D70000FBECE0107969E01245F3F4FB9010E940E
:102D8000C42A882399F58C819D810E94451A882345
:102D900031F1EC81FD8180819181009761F40FB662
:102DA000F8940F92EC81FD81848195810E94082C1A
:102DB0008B830F900FBE8C819D8141962C853D8524
:102DC000B9010E9473298C819D810E94F2190E9491
:102DD0003127882309F075CF0E94E21172CF8C81D0
:102DE0009D810E94F2190E9431276BCF8C819D81B9
:102DF0000E94F2190E9431278C819D810E94451A00
:102E0000882309F45ECF8B81882389F00FB6F8946C
:102E10000F928C819D810E94D2188983EC81FD8163
:102E20008481958169810E94182D0F900FBE1E86A6
:102E30008E852E960FB6F894DEBF0FBECDBFCF9114
:102E4000DF910895DF93CF93CDB7DEB760970FB6CC
:102E5000F894DEBF0FBECDBF9B878A877D876C87C6
:102E60005F874E871E828A859B859B838A830FB6E8
:102E7000F8940F92EA81FB81828D8983898188236E
:102E800031F1EA81FB81868197819D838C838A81E0
:102E90009B812C853D85B9010E94AB19EA81FB819C
:102EA0008C819D8197838683EA81FB818189882338
:102EB00049F08A819B8141960E94C529882311F09F
:102EC0000E94E2110F900FBE81E0888B63C08E8557
:102ED0009F85009721F40F900FBE188A5BC08E81EA
:102EE000882331F4CE0107960E94AB2A81E08E83BD
:102EF0000F900FBE0E9425270FB6F8940F92EA811B
:102F0000FB81858D8F3F19F4EA81FB81158EEA8163
:102F1000FB81868D8F3F19F4EA81FB81168E0F901D
:102F20000FBECE0107969E01225F3F4FB9010E945E
:102F3000C42A882309F58A819B810E94451A882327
:102F4000A1F08A819B8141962E853F85B9010E941F
:102F500073298A819B810E94F2190E94312788235C
:102F600009F085CF0E94E21182CF8A819B810E9465
:102F7000F2190E9431277BCF8A819B810E94F2192E
:102F80000E9431278A819B810E94451A882309F477
:102F90006ECF188A888960960FB6F894DEBF0FBE90
:102FA000CDBFCF91DF910895DF93CF93CDB7DEB73B
:102FB0002C970FB6F894DEBF0FBECDBF98878F83D6
:102FC0007A8769875C874B878F8198859C838B8301
:102FD0001D82EB81FC81828D8A838A81882381F125
:102FE000EB81FC81858D89838B819C8129853A8544
:102FF000B9010E94AB198A818150EB81FC81828FDB
:1030000089818F3FA9F4EB81FC8180858823A9F019
:103010008B819C8108960E94C529882371F08B853D
:103020009C85009751F0EB85FC8581E0808305C08D
:1030300089818F5FEB81FC81858F81E08E8301C068
:103040001E828E812C960FB6F894DEBF0FBECDBFC8
:10305000CF91DF910895DF93CF93CDB7DEB72A9755
:103060000FB6F894DEBF0FBECDBF98878F837A87E7
:1030700069878F8198859A8389831D82E981FA8186
:10308000828D8823B1F0E981FA81868197819C83C2
:103090008B8389819A8129853A85B9010E94AB1970
:1030A000E981FA818B819C819783868381E08E837D
:1030B00001C01E828E812A960FB6F894DEBF0FBE25
:1030C000CDBFCF91DF910895DF93CF9300D00F92C2
:1030D000CDB7DEB79B838A830FB6F8940F92EA814F
:1030E000FB81828D89830F900FBE89810F900F9095
:1030F0000F90CF91DF910895DF93CF9300D000D050
:103100000F92CDB7DEB79D838C838C819D819A838E
:1031100089830FB6F8940F92E981FA81938DE98142
:10312000FA81828D292F281B822F8B830F900FBE4F
:103130008B810F900F900F900F900F90CF91DF9198
:103140000895DF93CF9300D000D00F92CDB7DEB7B4
:103150009D838C838C819D819A838983E981FA8107
:10316000828D8B838B810F900F900F900F900F901B
:10317000CF91DF910895DF93CF9300D000D0CDB7EA
:10318000DEB79C838B838B819C819A838983898121
:103190009A810E9458090F900F900F900F90CF9135
:1031A000DF910895DF93CF9300D00F92CDB7DEB7B4
:1031B0009B838A83EA81FB818189882361F0EA818C
:1031C000FB810688F789E02D80819181982F8AE024
:1031D000891B898301C0198289810F900F900F90FC
:1031E000CF91DF910895DF93CF93CDB7DEB72797C7
:1031F0000FB6F894DEBF0FBECDBF9C838B837E835A
:103200006D834F831A82EB81FC81828D8983EB81F0
:10321000FC81848D882399F4EB81FC8180819181EC
:10322000009709F089C0EB81FC81848195810E941F
:10323000A62C8A83EB81FC81158214827DC08F814C
:10324000882399F5EB81FC8162817381EB81FC819C
:10325000848D482F50E02D813E81CB01B9010E9421
:103260008D32EB81FC8122813381EB81FC81848D65
:10327000882F90E0820F931FEB81FC8193838283E0
:10328000EB81FC8122813381EB81FC8184819581FA
:103290002817390708F450C0EB81FC8180819181A7
:1032A000EB81FC819383828347C0EB81FC81668143
:1032B0007781EB81FC81848D482F50E02D813E8108
:1032C000CB01B9010E948D32EB81FC8126813781CF
:1032D000EB81FC81848D882F90E0909581959F4FA4
:1032E000820F931FEB81FC8197838683EB81FC81A6
:1032F00026813781EB81FC818081918128173907F4
:1033000090F4EB81FC8124813581EB81FC81848DFB
:10331000882F90E0909581959F4F820F931FEB81AE
:10332000FC81978386838F81823031F48981882361
:1033300019F089818150898389818F5FEB81FC81BC
:10334000828F8A8127960FB6F894DEBF0FBECDBF5D
:10335000CF91DF910895DF93CF9300D000D0CDB708
:10336000DEB79A8389837C836B83E981FA81848DBC
:10337000882389F1E981FA8126813781E981FA81FF
:10338000848D882F90E0820F931FE981FA819783C3
:103390008683E981FA8126813781E981FA818481F6
:1033A00095812817390740F0E981FA818081918160
:1033B000E981FA8197838683E981FA814681578181
:1033C000E981FA81848D282F30E08B819C81BA01BC
:1033D000A9010E948D320F900F900F900F90CF9106
:1033E000DF910895DF93CF9300D000D0CDB7DEB743
:1033F0009C838B830FB6F8940F92EB81FC81868DB2
:103400008A8311C0EB81FC818189882379F08B81CB
:103410009C8141960E94C529882311F00E94312B7E
:103420008A8181508A838A81181664F3EB81FC813A
:103430008FEF868F0F900FBE0FB6F8940F92EB812F
:10344000FC81858D898311C0EB81FC818085882377
:1034500079F08B819C8108960E94C529882311F000
:103460000E94312B8981815089838981181664F3E8
:10347000EB81FC818FEF858F0F900FBE0F900F9027
:103480000F900F90CF91DF910895DF93CF9300D0ED
:103490000F92CDB7DEB79B838A830FB6F8940F9255
:1034A000EA81FB81828D882319F481E0898301C040
:1034B00019820F900FBE89810F900F900F90CF91BE
:1034C000DF910895DF93CF9300D000D00F92CDB756
:1034D000DEB79D838C838C819D819A838983E9816A
:1034E000FA81828D882319F481E08B8301C01B82CD
:1034F0008B810F900F900F900F900F90CF91DF91D5
:103500000895DF93CF9300D00F92CDB7DEB79B83A2
:103510008A830FB6F8940F92EA81FB81928DEA813B
:10352000FB81838D981719F481E0898301C019828A
:103530000F900FBE89810F900F900F90CF91DF9168
:103540000895DF93CF9300D000D00F92CDB7DEB7B0
:103550009D838C838C819D819A838983E981FA8103
:10356000928DE981FA81838D981719F481E08B831C
:1035700001C01B828B810F900F900F900F900F90C6
:10358000CF91DF910895DF93CF93CDB7DEB7289722
:103590000FB6F894DEBF0FBECDBF6D837E838F83E1
:1035A000988719821A821B821C820BC089819A819A
:1035B000AB81BC810196A11DB11D89839A83AB8328
:1035C000BC838D819E81AF81B8852CED30E040E0D9
:1035D00050E0BC01CD010E9410329B01AC018981F9
:1035E0009A81AB81BC8182179307A407B507F0F2DB
:1035F00028960FB6F894DEBF0FBECDBFCF91DF91F6
:103600000895DF93CF9300D000D00F92CDB7DEB7EF
:1036100069837A838B839C831D8289819A81AB81A4
:10362000BC810097A105B10511F081E08D838981EE
:103630009A81AB81BC810197A109B10989839A83E1
:10364000AB83BC838D81882339F70F900F900F9047
:103650000F900F90CF91DF9108950F93DF93CF9349
:10366000CDB7DEB728970FB6F894DEBF0FBECDBF3B
:103670009D838C837F836E8348878885813019F48E
:1036800081E0898301C019828E819F81009721F496
:1036900081E090E09F838E838C819D8101969D8344
:1036A0008C838C819D810F960E9402099B838A8363
:1036B0008A819B81009789F06A817B818A819B81C5
:1036C0009C01215F3F4F4C815D81EE81FF81CB01E9
:1036D000B9019F0109810E9485228A819B812896D8
:1036E0000FB6F894DEBF0FBECDBFCF91DF910F9123
:1036F0000895DF93CF9300D000D0CDB7DEB79C8381
:103700008B838B819C819A838983E981FA81868569
:10371000882F90E082709070009729F489819A81B7
:103720000E94580908C089819A8160E070E04FE0EA
:1037300050E00E9496320F900F900F900F90CF9113
:10374000DF9108950F93DF93CF9300D000D00F92B5
:10375000CDB7DEB79D838C838C819D819B838A83CB
:1037600019820FB6F8940F92EA81FB8180859185CA
:103770000097F1F4EA81FB81828593850097C1F47B
:10378000EA81FB8124853585EA81FB81448155816D
:10379000EA81FB81A681B781EA81FB81E6858A8186
:1037A0009B81B9019D010E2F0E94852281E08983B2
:1037B0000F900FBE89810F900F900F900F900F9078
:1037C000CF91DF910F910895DF93CF93CDB7DEB7FF
:1037D00027970FB6F894DEBF0FBECDBF9D838C83B5
:1037E0007F836E838C819D819B838A838E819F8161
:1037F000009721F481E090E09F838E83EA81FB8132
:10380000248135818E819F812817390748F0EA810C
:10381000FB818E819F819783868381E0898301C0AC
:103820001982898127960FB6F894DEBF0FBECDBFEF
:10383000CF91DF910895DF93CF9300D000D000D0D7
:10384000CDB7DEB79E838D838D819E819C838B83D4
:10385000EB81FC8124813581EB81FC818081918128
:10386000820F931F9A838983EB81FC8122813381AC
:1038700089819A81821B930B9A83898389819A819A
:1038800001979A838983EB81FC8124813581898129
:103890009A818217930750F0EB81FC812481358156
:1038A00089819A81821B930B9A83898389819A816A
:1038B00026960FB6F894DEBF0FBECDBFCF91DF9135
:1038C0000895DF93CF9300D000D000D0CDB7DEB7FE
:1038D0009E838D838D819E819C838B838B819C8134
:1038E0000E944B229A83898389819A8126960FB6FA
:1038F000F894DEBF0FBECDBFCF91DF910895EF9258
:10390000FF920F931F93DF93CF93CDB7DEB76397EB
:103910000FB6F894DEBF0FBECDBF9D878C877F8723
:103920006E87598B488B3B8B2A8B8C859D8598871E
:103930008F831C821B82888999899A838983EF816E
:10394000F8858685882F90E081709070882329F013
:1039500089819A8102969A8389838A899B890097B3
:1039600009F440C0CE0109960E948D2A0FB6F89442
:103970000F928F8198850E941B1C9C838B832B81C7
:103980003C8189819A812817390750F580E090E0C1
:103990000E945A310E94F62BEF81F8859387828727
:1039A0000F900FBEEA89FB8960E070E080E090E054
:1039B00020E030E040E050E000E010E07F010E94B5
:1039C000632EEF81F88513861286CE0109969E013B
:1039D0002E5E3F4FB9010E94C42A882339F202C0EB
:1039E0000F900FBE8B819C81009731F48F81988559
:1039F0000E941B1C9C838B838F8198852E853F851D
:103A000048895989EB81FC81A981BA81B9019F015B
:103A10008D010E94C41D9E838D838D819E810097A0
:103A200039F18F8198850E944B229C01EF81F885A6
:103A30008681978128173907D8F00E942527EF81C2
:103A4000F88580859185009789F0EF81F8858085DC
:103A5000918540E050E060E070E020E000E010E0A0
:103A60000E94FF2EEF81F885118610860E94312773
:103A70008D819E8163960FB6F894DEBF0FBECDBFD9
:103A8000CF91DF911F910F91FF90EF900895EF92EA
:103A9000FF920F931F93DF93CF93CDB7DEB761975C
:103AA0000FB6F894DEBF0FBECDBF9B878A877D8798
:103AB0006C875F874E87398B288B8A859B85998792
:103AC00088878E859F859B838A83E885F98586858F
:103AD000882F90E081709070882329F08A819B81E3
:103AE00002969B838A83888599850E941B1C9D83EF
:103AF0008C83888599852C853D854E855F85EC81F5
:103B0000FD81AA81BB81B9019F018D010E94C41D65
:103B10009F838E838E819F81009739F18885998557
:103B20000E944B229C01E885F985868197812817A0
:103B30003907D8F01982E885F98580859185009745
:103B4000A1F0E885F98580859185E889F98940E0CB
:103B500050E060E070E020E000E010E07F010E94B3
:103B6000DC2FE885F985118610868E819F8161960C
:103B70000FB6F894DEBF0FBECDBFCF91DF911F917E
:103B80000F91FF90EF9008950F931F93DF93CF93C2
:103B9000CDB7DEB761970FB6F894DEBF0FBECDBFCD
:103BA0009D838C837F836E83598748873B872A87D1
:103BB0001D870C878A859B85009711F41B8238C06E
:103BC000EC81FD818685882F90E081709070009750
:103BD000D1F481E08B8328853985398B288B8A85C0
:103BE0009B859F878E872E853F8588899989821737
:103BF000930720F4288939893F872E878E859F85F2
:103C00009987888715C02A853B858C859D852817CF
:103C1000390768F081E08B839E01285F3F4F8C81DC
:103C20009D81B90142E050E00E94112101C01B8238
:103C30008B81882361F02E813F81488559858C8155
:103C40009D81B9010E9411219A83898302C01A8241
:103C5000198289819A8161960FB6F894DEBF0FBEF2
:103C6000CDBFCF91DF911F910F910895EF92FF92F9
:103C70000F931F93DF93CF93CDB7DEB760970FB647
:103C8000F894DEBF0FBECDBF9A8789877C876B878C
:103C90005E874D87388B2F8789859A8598878F8394
:103CA0001E821D82EF81F8858685882F90E08170C5
:103CB0009070882329F082E090E09A83898302C083
:103CC0001A8219828F859889009709F43DC00FB632
:103CD000F8940F928F8198850E944B229C838B834E
:103CE0002B813C8189819A818217930750F080E073
:103CF00090E00E945A310E94F62BEF81F88591875F
:103D000080870F900FBE2B813C8189819A81821719
:103D1000930700F1EF85F88960E070E080E090E0C3
:103D200020E030E040E050E000E010E07F010E9441
:103D3000632EEF81F885118610868F8198850E9409
:103D40004B229C838B8306C08F8198850E944B22D7
:103D50009C838B832B813C8189819A818217930775
:103D600080F58F8198852B853C854D855E85EB811F
:103D7000FC81A981BA81B9019F018D010E94BA1FFE
:103D80009E838D838D819E810097D9F00E94252787
:103D9000EF81F88582859385009789F0EF81F8851A
:103DA0008285938540E050E060E070E020E000E034
:103DB00010E00E94FF2EEF81F885138612860E9484
:103DC00031278D819E8160960FB6F894DEBF0FBEBD
:103DD000CDBFCF91DF911F910F91FF90EF9008958C
:103DE000DF93CF93CDB7DEB72C970FB6F894DEBF35
:103DF0000FBECDBF9C878B878B859C8598878F83D3
:103E0000EF81F8858685882F90E0817090708823F7
:103E100061F18F8198850E944B229C838B838B81DB
:103E20009C8183309105F0F0EF81F885808191814C
:103E30009A8389839E01275F3F4F8F819885EB810D
:103E4000FC81B90142E050E09F010E949E218985DA
:103E50009A859E838D83EF81F88589819A819183EC
:103E6000808305C01E821D8202C01E821D828D813C
:103E70009E812C960FB6F894DEBF0FBECDBFCF91BA
:103E8000DF910895EF92FF920F931F93DF93CF93EB
:103E9000CDB7DEB761970FB6F894DEBF0FBECDBFCA
:103EA0009B878A877D876C875F874E87398B288BB6
:103EB0008A859B85998788871F821E82E885F98578
:103EC0008685882F90E081709070882329F082E0A9
:103ED00090E09B838A8302C01B821A828885998521
:103EE0000E944B229D838C832C813D818A819B8102
:103EF0008217930780F5888599852C853D854E85A9
:103F00005F85EC81FD81AA81BB81B9019F018D0193
:103F10000E94BA1F9F838E838E819F810097D9F064
:103F20001982E885F985828593850097A1F0E88557
:103F3000F98582859385E889F98940E050E060E061
:103F400070E020E000E010E07F010E94DC2FE885B7
:103F5000F985138612868E819F8161960FB6F8943B
:103F6000DEBF0FBECDBFCF91DF911F910F91FF90AC
:103F7000EF9008950F931F93DF93CF93CDB7DEB7E4
:103F800062970FB6F894DEBF0FBECDBF9A878987C0
:103F90007C876B875E874D87388B2F871A8B098BC1
:103FA00089899A89009791F1E985FA8580819181C3
:103FB0009E838D83AE01495F5F4F89859A852989EC
:103FC0003A89EF85F889BA01A9019F010E949E21D3
:103FD0008F8198859A8389832F85388989899A89E1
:103FE000A901481B590BCA01988B8F8729813A81F7
:103FF0008D859E858217930768F4E985FA858D8102
:104000009E81918380831A82198204C08D859E854A
:104010009A8389834B855C8589859A8529813A8134
:10402000EF85F889BA01A9019F010E949E219C8316
:104030008B838B819C8162960FB6F894DEBF0FBE96
:10404000CDBFCF91DF911F910F910895DF93CF9353
:10405000CDB7DEB727970FB6F894DEBF0FBECDBF42
:104060009F838E838E819F819D838C83EC81FD81D4
:10407000808191819A838983EC81FD8122813381C2
:1040800089819A812817390719F481E08B8301C04F
:104090001B828B8127960FB6F894DEBF0FBECDBF73
:1040A000CF91DF910895DF93CF93CDB7DEB72797F8
:1040B0000FB6F894DEBF0FBECDBF9F838E838E8177
:1040C0009F819A838983E981FA818685882F90E090
:1040D00081709070882329F082E090E09C838B832C
:1040E00002C01C821B828E819F810E941B1C9C012E
:1040F0008B819C818217930718F081E08D8301C02A
:104100001D828D8127960FB6F894DEBF0FBECDBFFE
:10411000CF91DF910895EF92FF920F931F93DF935A
:10412000CF93CDB7DEB728970FB6F894DEBF0FBE9A
:10413000CDBF9E838D8378876F838D819E819C8385
:104140008B831982EB81FC81808591850097B9F082
:10415000EB81FC8180859185EF81F88540E050E01E
:1041600060E070E020E000E010E07F010E94DC2FC2
:10417000EB81FC811186108681E08A8301C01A825E
:104180008A8128960FB6F894DEBF0FBECDBFCF91BF
:10419000DF911F910F91FF90EF900895EF92FF92A2
:1041A0000F931F93DF93CF93CDB7DEB728970FB64A
:1041B000F894DEBF0FBECDBF9E838D8378876F835B
:1041C0008D819E819C838B831982EB81FC8182850A
:1041D00093850097B9F0EB81FC8182859385EF810F
:1041E000F88540E050E060E070E020E000E010E0A2
:1041F0007F010E94DC2FEB81FC811386128681E017
:104200008A8301C01A828A8128960FB6F894DEBF8D
:104210000FBECDBFCF91DF911F910F91FF90EF9017
:104220000895DF93CF93CDB7DEB72E970FB6F894EE
:10423000DEBF0FBECDBF9E838D8378876F835A8785
:104240004987ED81FE81828193819C838B83ED81FF
:10425000FE81248135818B819C81A901481B590BEA
:10426000CA0129853A853E872D879C878B874B8598
:104270005C858D859E858417950720F42D853E8568
:104280003C872B874B855C855A834983ED81FE8172
:10429000248535858B819C81820F931F2F813885E2
:1042A00049815A81B9010E948D3229853A858981D7
:1042B0009A8182179307B0F4ED81FE81648575853C
:1042C0002F81388589819A81A901480F591F298535
:1042D0003A8589819A81281B390BCB01BA01A90142
:1042E0000E948D322B813C8189859A85820F931F94
:1042F0009C838B83ED81FE81248135818B819C8120
:104300008217930750F0ED81FE81248135818B81E6
:104310009C81821B930B9C838B83ED81FE818B811F
:104320009C819383828389859A852E960FB6F89413
:10433000DEBF0FBECDBFCF91DF910895DF93CF9346
:10434000CDB7DEB766970FB6F894DEBF0FBECDBF10
:1043500098878F837A8769875C874B873E872D870D
:104360002D853E853A8B298B4B855C85588B4F87F5
:104370008F85988929893A892817390720F449892E
:104380005A89588B4F878F8598899E838D838D811D
:104390009E81009709F474C0EF81F8858081918136
:1043A0009A838983EF81F8852481358189819A8177
:1043B000A901481B590BCA012D813E813E8B2D8BD3
:1043C0009C8B8B8B4B895C898D899E898417950783
:1043D00020F42D893E893C8B2B8B4B895C895C8337
:1043E0004B83EF81F8852485358589819A81A901E0
:1043F000480F591F89859A852B813C81BA01A901F3
:104400000E948D322D813E818B819C818217930782
:10441000B0F429853A858B819C81B901680F791F99
:10442000EF81F885448555852D813E818B819C8166
:10443000281B390BCB01BA01A9010E948D322981B9
:104440003A818D819E81820F931F9A838983EF81A8
:10445000F8852481358189819A818217930750F0EC
:10446000EF81F8852481358189819A81821B930BA4
:104470009A838983EF81F88589819A8191838083EA
:104480008D819E8166960FB6F894DEBF0FBECDBFBC
:10449000CF91DF910895DF93CF9300D000D0CDB7B7
:1044A000DEB79C838B83EB81FC8124813581EB819A
:1044B000FC8182819381820F931F9A838983EB8190
:1044C000FC812081318189819A81821B930B9A839F
:1044D0008983EB81FC812481358189819A818217CE
:1044E000930750F0EB81FC812481358189819A8189
:1044F000821B930B9A83898389819A810F900F90F5
:104500000F900F90CF91DF9108950F93DF93CF938A
:10451000CDB7DEB729970FB6F894DEBF0FBECDBF7B
:104520009A8389837C836B835E834D8338872F8353
:10453000098789819A8160E070E04FE050E00E9435
:104540009632E981FA818B819C8195878487E98104
:10455000FA818D819E8195838483E981FA818F819F
:10456000988597838683E981FA818985868729964C
:104570000FB6F894DEBF0FBECDBFCF91DF910F9184
:1045800008958F929F92AF92BF92CF92DF92EF9257
:10459000FF920F931F93DF93CF93CDB7DEB7609752
:1045A0000FB6F894DEBF0FBECDBF9F838E83798791
:1045B00068875B874A873D872C870E87F88AEF8656
:1045C0008A859B850E9402099A83898389819A81C1
:1045D0000097B1F088E290E00E9402099D838C83ED
:1045E0008C819D81009739F0EC81FD8189819A81D0
:1045F000908F878B07C089819A810E94580902C0D9
:104600001D821C828C819D810097E9F08A859B85A3
:104610009C0140E050E08E819F8168857985EC8522
:10462000FD85AF85B889AC80BD808F01EE846D01BA
:10463000882499240E9439238C819D810E94FC2327
:1046400081E08B8302C08FEF8B838B8160960FB6E6
:10465000F894DEBF0FBECDBFCF91DF911F910F91B8
:10466000FF90EF90DF90CF90BF90AF909F908F9092
:1046700008958F929F92AF92BF92CF92DF92EF9266
:104680000F931F93DF93CF93CDB7DEB764970FB629
:10469000F894DEBF0FBECDBF9D838C837F836E8376
:1046A000288739874A875B871D870C87EE86D88ADB
:1046B000CF86BA8AA98A9C8A8B8AE989FA8927894E
:1046C000308D888599850197820F931F9B838A83FC
:1046D0008E819F81009751F1198221C08981482FD5
:1046E00050E08981282F30E08E819F81FC01E20F0C
:1046F000F31F208189899A89840F951FFC0179967F
:1047000020838981282F30E08E819F81FC01E20F78
:10471000F31F8081882331F089818F5F89838981AC
:104720008830E0F2E989FA8910A203C0E989FA89A0
:10473000118E8E858A3010F089E08E87E989FA899A
:104740008E85868BE989FA898E8581A3E989FA8924
:1047500012A289899A8902960E94A80989899A8950
:104760000C960E94A809E989FA8989899A89918712
:1047700080878E85282F30E08AE090E0821B930BA3
:10478000E989FA8995878487E989FA8989899A89E3
:10479000938B828BE989FA8913A214A215A216A21F
:1047A000E989FA8917A28A819B812C813D814C85F8
:1047B0005D85B9010E942310E989FA89918380837C
:1047C0008F859889009731F0EF85F88989899A89D2
:1047D0009183808364960FB6F894DEBF0FBECDBF81
:1047E000CF91DF911F910F91EF90DF90CF90BF900D
:1047F000AF909F908F900895DF93CF9300D0CDB767
:10480000DEB79A8389830FB6F8940F92809185075B
:104810008F5F80938507809182079091830700972F
:1048200069F489819A8190938307809382078091AC
:1048300085078130B9F40E94452B14C08091890707
:10484000882381F4E0918207F09183079689E981BA
:10485000FA818689891730F089819A81909383073C
:104860008093820780918D078F5F80938D07E98108
:10487000FA81968980918807891728F4E981FA815D
:10488000868980938807E981FA818689282F30E01C
:10489000C901880F991F880F991F880F991F820FD0
:1048A000931FAC014D56584F89819A819C012E5F10
:1048B0003F4FCA01B9010E94B8090F900FBE809105
:1048C0008907882361F0E0918207F0918307968938
:1048D000E981FA818689981710F40E94E2110F90FD
:1048E0000F90CF91DF910895DF93CF9300D000D048
:1048F00000D0CDB7DEB79C838B830FB6F8940F92B0
:104900008B819C81009739F4809182079091830775
:104910009E838D8304C08B819C819E838D838D813A
:104920009E819A83898389819A8102960E94680A6E
:10493000E981FA8184899589009729F089819A8192
:104940000C960E94680A80918D078F5F80938D0777
:10495000209182073091830789819A81821793077A
:1049600081F489819A819C012E5F3F4F8CE098E011
:10497000B9010E94B809809184078F5F80938407F2
:104980000BC08091850781508093850789819A812A
:104990000E94B52B0E94CB2B0F900FBE80918907F0
:1049A000882359F0209182073091830789819A8169
:1049B0008217930711F40E94E21126960FB6F8941D
:1049C000DEBF0FBECDBFCF91DF910895DF93CF93B0
:1049D000CDB7DEB72A970FB6F894DEBF0FBECDBFB6
:1049E00098878F837A8769871B820E942527809109
:1049F0008607909187079A838983EF81F8852081C4
:104A0000318189859A85820F931F9E838D83EF81E3
:104A1000F8852081318189819A818217930798F4E2
:104A2000EF81F885208131818D819E8182179307E6
:104A3000E0F42D813E8189819A8182179307A8F441
:104A400081E08B8312C0EF81F885208131818D81D7
:104A50009E818217930738F02D813E8189819A814A
:104A60008217930710F481E08B83EF81F8858D81A5
:104A70009E81918380838B81882349F08D819E81E3
:104A800029813A81821B930B60E00E9494310E943D
:104A900031278C838C81882311F40E94E2112A969D
:104AA0000FB6F894DEBF0FBECDBFCF91DF91089552
:104AB000DF93CF9300D00F92CDB7DEB79B838A836D
:104AC00019828A819B81009751F00E9425278A8153
:104AD0009B8160E00E9494310E9431278983898103
:104AE000882311F40E94E2110F900F900F90CF9144
:104AF000DF910895DF93CF9300D000D000D0CDB7E1
:104B0000DEB79C838B830FB6F8940F928B819C81C8
:104B1000009739F480918207909183079E838D835B
:104B200004C08B819C819E838D838D819E819A831D
:104B3000898389819A8102960E94680AE981FA81B3
:104B400084899589009729F089819A810C960E9421
:104B5000680A89819A819C012E5F3F4F85E198E028
:104B6000B9010E94B809E981FA8187A1813019F45D
:104B7000E981FA8117A20F900FBE809189078823DF
:104B800039F00FB6F8940F920E94CB2B0F900FBE06
:104B9000209182073091830789819A818217930738
:104BA000A1F480918907882319F00E94E2110DC0B9
:104BB0009091150880918507981729F41092830722
:104BC0001092820702C00E94062926960FB6F8941A
:104BD000DEBF0FBECDBFCF91DF910895DF93CF939E
:104BE00000D000D00F92CDB7DEB79D838C831B829F
:104BF0008C819D819A838983E981FA81828593855D
:104C000028E08531920781F4E981FA8184899589C8
:104C100028E08330920741F0E981FA8184899589FF
:104C2000009711F481E08B838B810F900F900F9090
:104C30000F900F90CF91DF910895DF93CF9300D025
:104C400000D0CDB7DEB79C838B838B819C819A8308
:104C50008983209182073091830789819A81821705
:104C6000930709F447C089819A81009709F442C0EB
:104C70000FB6F8940F9289819A810E94EE258823BD
:104C8000B9F189819A8102960E94680AE981FA81C4
:104C9000968980918807891728F4E981FA818689A5
:104CA00080938807E981FA818689282F30E0C9013D
:104CB000880F991F880F991F880F991F820F931FC4
:104CC000AC014D56584F89819A819C012E5F3F4F10
:104CD000CA01B9010E94B809E981FA819689E09177
:104CE0008207F09183078689981710F00E94E211DD
:104CF0000F900FBE0F900F900F900F90CF91DF91FC
:104D00000895DF93CF9300D000D000D0CDB7DEB7A9
:104D10009E838D831C828D819E819B838A831982D1
:104D20008A819B810E94EE25882309F446C08091E8
:104D300092078823C1F5EA81FB819689E091820779
:104D4000F09183078689981710F081E08C838A811F
:104D50009B8102960E94680AEA81FB819689809174
:104D60008807891728F4EA81FB8186898093880760
:104D7000EA81FB818689282F30E0C901880F991FBD
:104D8000880F991F880F991F820F931FAC014D56F2
:104D9000584F8A819B819C012E5F3F4FCA01B90108
:104DA0000E94B8090AC08A819B819C01245F3F4F01
:104DB00083E098E0B9010E94B8098C8126960FB66D
:104DC000F894DEBF0FBECDBFCF91DF910895EF9273
:104DD000FF920F93DF93CF930F92CDB7DEB78BE3A4
:104DE0009BE22BE830E0E0E9F7E0B90140E550E074
:104DF00020E030E000E07F010E94C12289838981A8
:104E0000813081F4F8948FEF9FEF90938F07809318
:104E10008E0781E08093890710928707109286079A
:104E20000E94A6110F90CF91DF910F91FF90EF900C
:104E30000895DF93CF93CDB7DEB7F894109289072A
:104E40000E94DB11CF91DF910895DF93CF93CDB70F
:104E5000DEB7809192078F5F80939207CF91DF91A9
:104E60000895DF93CF9300D000D0CDB7DEB71C827A
:104E70001B821A820FB6F8940F928091920781508C
:104E80008093920780919207882309F073C08091E4
:104E90008507882309F46EC045C0E0910808F091A9
:104EA0000908868197819C838B838B819C810C96DA
:104EB0000E94680A8B819C8102960E94680AEB819D
:104EC000FC81968980918807891728F4EB81FC8101
:104ED000868980938807EB81FC818689282F30E0C2
:104EE000C901880F991F880F991F880F991F820F7A
:104EF000931FAC014D56584F8B819C819C012E5FB6
:104F00003F4FCA01B9010E94B809EB81FC81968923
:104F1000E0918207F09183078689981718F081E065
:104F200080938B0780910308882309F0B6CF8B818B
:104F30009C81009711F00E94CB2B80918A07898376
:104F40008981882379F00E942128882319F081E043
:104F500080938B078981815089838981882399F780
:104F600010928A0780918B07882321F081E08A8341
:104F70000E94E2110F900FBE8A810F900F900F9048
:104F80000F90CF91DF910895DF93CF9300D0CDB7ED
:104F9000DEB70FB6F8940F9280918607909187073D
:104FA0009A8389830F900FBE89819A810F900F9009
:104FB000CF91DF910895DF93CF9300D00F92CDB7BB
:104FC000DEB7198280918607909187079B838A8339
:104FD0008A819B810F900F900F90CF91DF91089560
:104FE000DF93CF93CDB7DEB780918507CF91DF9167
:104FF0000895DF93CF9300D000D000D0CDB7DEB7B7
:105000009C838B838B819C81009739F480918207EC
:10501000909183079E838D8304C08B819C819E83A6
:105020008D838D819E819A83898389819A81499616
:1050300026960FB6F894DEBF0FBECDBFCF91DF919D
:105040000895DF93CF93CDB7DEB729970FB6F894C5
:10505000DEBF0FBECDBF1D8280919207882309F06D
:10506000C0C0809186079091870701969C838B83AF
:105070008B819C8190938707809386078B819C818D
:105080000097D9F48091FF07909100089A83898353
:105090008091010890910208909300088093FF0787
:1050A00089819A81909302088093010880918C07EE
:1050B0008F5F80938C070E94CB2B20918E073091BD
:1050C0008F078B819C818217930708F471C0E09150
:1050D000FF07F09100088081882339F48FEF9FEF5C
:1050E00090938F0780938E0763C0E091FF07F09144
:1050F00000080580F681E02D868197819987888751
:10510000E885F985828193819F838E832B813C8101
:105110008E819F812817390738F48E819F81909363
:105120008F0780938E0744C08885998502960E94D8
:10513000680AE885F98584899589009729F088852A
:1051400099850C960E94680AE885F9859689809170
:105150008807891728F4E885F98586898093880768
:10516000E885F9858689282F30E0C901880F991FC5
:10517000880F991F880F991F820F931FAC014D56FE
:10518000584F888599859C012E5F3F4FCA01B90110
:105190000E94B809E885F9859689E0918207F09127
:1051A00083078689981708F492CF81E08D838FCF8B
:1051B000E0918207F09183078689282F30E0C901AA
:1051C000880F991F880F991F880F991F820F931FAF
:1051D000FC01ED56F84F8081823040F081E08D83F4
:1051E00005C080918A078F5F80938A0780918B0723
:1051F000882311F081E08D838D8129960FB6F89474
:10520000DEBF0FBECDBFCF91DF910895DF93CF9367
:1052100000D00F92CDB7DEB780919207882321F09E
:1052200081E080938B0759C010928B07809188078B
:105230008B8303C08B8181508B838B81282F30E03F
:10524000C901880F991F880F991F880F991F820F16
:10525000931FFC01ED56F84F8081882359F38B8111
:10526000282F30E0C901880F991F880F991F880FD8
:10527000991F820F931F8D56984F9A838983E981D6
:10528000FA810180F281E02D82819381E981FA81A6
:1052900092838183E981FA812181328189819A8196
:1052A00003962817390759F4E981FA810180F281C0
:1052B000E02D82819381E981FA8192838183E98162
:1052C000FA810180F281E02D868197819093830796
:1052D000809382078B81809388070F900F900F90A7
:1052E000CF91DF910895DF93CF9300D000D0CDB759
:1052F000DEB79A8389837C836B8380918207909148
:1053000083079C01245F3F4F89819A81B9010E94E4
:10531000FC098B819C8161E00E9494310F900F9079
:105320000F900F90CF91DF910895DF93CF9300D02E
:1053300000D000D0CDB7DEB79A8389837C836B839E
:105340005E834D83E0918207F09183078B819C817E
:1053500090689587848780918207909183079C014C
:10536000245F3F4F89819A81B9010E94B8098D81DC
:105370009E8161E00E94943126960FB6F894DEBFBC
:105380000FBECDBFCF91DF910895DF93CF9300D0B3
:1053900000D00F92CDB7DEB79D838C83EC81FD8169
:1053A0000580F681E02D868197819B838A838A819F
:1053B0009B810C960E94680A80919207882361F570
:1053C0008A819B8102960E94680AEA81FB81968904
:1053D00080918807891728F4EA81FB818689809368
:1053E0008807EA81FB818689282F30E0C901880F70
:1053F000991F880F991F880F991F820F931FAC0167
:105400004D56584F8A819B819C012E5F3F4FCA01A8
:10541000B9010E94B8090AC08A819B819C01245F5E
:105420003F4F83E098E0B9010E94B809EA81FB810F
:105430009689E0918207F09183078689891730F475
:1054400081E0898381E080938B0701C01982898183
:105450000F900F900F900F900F90CF91DF910895C4
:10546000DF93CF9300D000D000D0CDB7DEB79C83C0
:105470008B837E836D838D819E819068EB81FC811F
:1054800091838083EB81FC81868197819A838983D4
:105490008B819C810E94680A89819A8102960E9470
:1054A000680AE981FA81968980918807891728F42A
:1054B000E981FA81868980938807E981FA81868962
:1054C000282F30E0C901880F991F880F991F880F76
:1054D000991F820F931FAC014D56584F89819A81B5
:1054E0009C012E5F3F4FCA01B9010E94B809E981B2
:1054F000FA819689E0918207F0918307868989175E
:1055000018F481E080938B0726960FB6F894DEBFDF
:105510000FBECDBFCF91DF910895DF93CF9300D021
:10552000CDB7DEB79A8389830FB6F8940F92809136
:105530008C07E981FA8180838091860790918707A3
:10554000E981FA81928381830F900FBE0F900F90B3
:10555000CF91DF910895DF93CF9300D0CDB7DEB721
:105560009A83898380918C07E981FA818083809175
:10557000860790918707E981FA81928381830F9052
:105580000F90CF91DF910895DF93CF93CDB7DEB722
:1055900029970FB6F894DEBF0FBECDBF9F838E83D1
:1055A000798768870FB6F8940F928091860790915B
:1055B00087079C838B83EE81FF81218132818B81E0
:1055C0009C81821B930B9A838983E885F98580816E
:1055D00091812FEF8F3F920711F41D8236C0EE812B
:1055E000FF81908180918C07981761F0EE81FF8197
:1055F000218132818B819C818217930718F081E091
:105600008D8323C0E885F9852081318189819A8144
:1056100082179307A0F4E885F9852081318189817B
:105620009A81A901481B590BCA01E885F985918324
:1056300080838E819F810E94AB2A1D8206C0E885EF
:10564000F9851182108281E08D830F900FBE8D81CC
:1056500029960FB6F894DEBF0FBECDBFCF91DF9174
:105660000895DF93CF93CDB7DEB781E080938B07AA
:10567000CF91DF910895DF93CF9300D0CDB7DEB700
:105680009A8389830E94862BFDCFDF93CF930F925D
:10569000CDB7DEB7198213C08981282F30E0C90148
:1056A000880F991F880F991F880F991F820F931FCA
:1056B0008D56984F0E947E0989818F5F89838981E9
:1056C0008A3050F38DEE97E00E947E0986EF97E0D6
:1056D0000E947E0983E098E00E947E098CE098E0B9
:1056E0000E947E0985E198E00E947E098DEE97E098
:1056F000909300088093FF0786EF97E0909302084D
:10570000809301080F90CF91DF910895DF93CF939D
:1057100000D0CDB7DEB720C00FB6F8940F92E0915D
:105720001108F0911208868197819A838983898173
:105730009A8102960E94680A809185078150809321
:105740008507809184078150809384070F900FBE56
:1057500089819A810E94B52B809184078823E1F684
:105760000F900F90CF91DF910895DF93CF9300D0EA
:10577000CDB7DEB79A838983E981FA818789908DD5
:105780000E94580989819A810E9458090F900F90B0
:10579000CF91DF910895DF93CF9300D0CDB7DEB7DF
:1057A000E091FF07F09100088081882339F48FEFA2
:1057B0009FEF90938F0780938E0713C0E091FF07B0
:1057C000F09100080580F681E02D868197819A830B
:1057D0008983E981FA818281938190938F078093F5
:1057E0008E070F900F90CF91DF910895DF93CF93A5
:1057F00000D0CDB7DEB780918207909183079A835E
:10580000898389819A810F900F90CF91DF910895BC
:10581000DF93CF9300D000D00F92CDB7DEB79D833A
:105820008C838C819D819B838A8319828C819D814D
:10583000009709F482C0EA81FB819689E091820792
:10584000F09183078689981708F06BC0EA81FB8185
:105850008485958599237CF0E0918207F0918307F8
:105860008689282F30E08AE090E0821B930BEA8142
:10587000FB8195878487EA81FB8142855385EA8194
:10588000FB818689282F30E0C901880F991F880F76
:10589000991F880F991F820F931F8D56984F481795
:1058A0005907A1F58A819B8102960E94680AE091BE
:1058B0008207F09183078689EA81FB81868BEA81E2
:1058C000FB81968980918807891728F4EA81FB81FA
:1058D000868980938807EA81FB818689282F30E0BA
:1058E000C901880F991F880F991F880F991F820F70
:1058F000931FAC014D56584F8A819B819C012E5FAE
:105900003F4FCA01B9010E94B80908C0E09182075F
:10591000F09183078689EA81FB81868B81E0898308
:105920000CC0EA81FB8191A1E0918207F09183078D
:105930008689981710F481E0898389810F900F90F0
:105940000F900F900F90CF91DF910895DF93CF9339
:1059500000D000D00F92CDB7DEB79D838C838C81B1
:105960009D819B838A8319828C819D81009709F494
:1059700056C0EA81FB8182A18150EA81FB8182A32A
:10598000EA81FB819689EA81FB8181A1981709F45C
:1059900046C0EA81FB8182A1882309F040C08A8148
:1059A0009B8102960E94680AEA81FB8181A1EA81BB
:1059B000FB81868BEA81FB818689282F30E08AE093
:1059C00090E0821B930BEA81FB8195878487EA81B3
:1059D000FB81968980918807891728F4EA81FB81E9
:1059E000868980938807EA81FB818689282F30E0A9
:1059F000C901880F991F880F991F880F991F820F5F
:105A0000931FAC014D56584F8A819B819C012E5F9C
:105A10003F4FCA01B9010E94B80981E08983898199
:105A20000F900F900F900F900F90CF91DF910895EE
:105A3000DF93CF93CDB7DEB728970FB6F894DEBFCC
:105A40000FBECDBF9F838E8368878E819F819D838C
:105A50008C8381E089838E819F81009709F474C0D3
:105A6000EC81FD8191A18885981718F488858A8337
:105A700004C0EC81FD8181A18A83EC81FD8196893E
:105A80008A81981709F460C0EC81FD8192A1898117
:105A9000981709F059C0EC81FD8186898B83EC81D0
:105AA000FD818A81868BEC81FD8184859585992392
:105AB0005CF08A81282F30E08AE090E0821B930B13
:105AC000EC81FD8195878487EC81FD81428553853A
:105AD0008B81282F30E0C901880F991F880F991FEB
